:020000040800F2
:10000000D0180020210200080D150008A5110008D5
:1000100011140008AB030008E918000800000000F4
:10002000000000000000000000000000890100083E
:10003000C503000800000000CD010008811600087B
:100040003B0200083B0200083B0200083B0200089C
:100050003B0200083B0200083B0200083B0200088C
:100060003B0200083B0200083B0200083B0200087C
:100070003B0200083B0200083B0200083B0200086C
:100080003B0200083B0200083B0200083B0200085C
:100090003B0200083B0200083B0200083B0200084C
:1000A0003B0200083B0200083B0200083B0200083C
:1000B0003B020008F9160008051700083B0200087B
:1000C0003B0200083B0200083B0200083B0200081C
:1000D0003B0200083B0200083B0200083B0200080C
:1000E0003B0200083B0200083B02000800F002F857
:1000F00000F03AF80AA090E8000C82448344AAF188
:100100000107DA4501D100F02FF8AFF2090EBAE885
:100110000F0013F0010F18BFFB1A43F0010318473B
:100120002055000040550000103A24BF78C878C11F
:10013000FAD8520724BF30C830C144BF04680C60ED
:10014000704700000023002400250026103A28BF35
:1001500078C1FBD8520728BF30C148BF0B60704739
:100160001FB51FBD10B510BD00F0EAF81146FFF72E
:10017000F7FF02F04DFB00F008F903B4FFF7F2FFC0
:1001800003BC00F00BF90000224B19680868B0E8C6
:10019000F00F80F30988BFF36F8F4FF0000080F3FA
:1001A00011884EF00D0E70470000000006480068F0
:1001B000006880F3088862B661B6BFF34F8FBFF363
:1001C0006F8F00DF00BF00BF08ED00E0EFF3098094
:1001D000BFF36F8F0F4B1A6820E9F00F106008B55E
:1001E0004FF0500080F31188BFF34F8FBFF36F8F34
:1001F00003F09AFC4FF0000080F31188BDE808403E
:1002000019680868B0E8F00F80F30988BFF36F8FB2
:10021000704700BF20000020EFF30580704700000A
:100220000948804709480047FEE7FEE7FEE7FEE78A
:10023000FEE7FEE7FEE7FEE7FEE7FEE704480549C6
:10024000054A064B70470000F7160008ED0000084D
:10025000D0120020D0180020D0140020D01400208C
:1002600010B5203AC0F00B80B1E81850203AA0E851
:100270001850B1E81850A0E81850BFF4F5AF5FEA85
:10028000027C24BFB1E81850A0E8185044BF18C938
:1002900018C0BDE810405FEA827C24BF51F8043BDF
:1002A00040F8043B08BF7047D20728BF31F8023B33
:1002B00048BF11F8012B28BF20F8023B48BF00F8C7
:1002C000012B70474FF0000200B513469446964646
:1002D000203922BFA0E80C50A0E80C50B1F1200159
:1002E000BFF4F7AF090728BFA0E80C5048BF0CC007
:1002F0005DF804EB890028BF40F8042B08BF704765
:1003000048BF20F8022B11F0804F18BF00F8012BD6
:10031000704770477047704710B500F009F80068E3
:1003200010BD10B5044600F003F8046010BD0000D5
:10033000004870477012002000487047701200207B
:100340007546FFF7F9FFAE4605006946534620F0B3
:100350000700854618B020B5FFF770FFBDE82040C4
:100360004FF000064FF000074FF000084FF0000B71
:1003700021F00701AC46ACE8C009ACE8C009ACE824
:10038000C009ACE8C0098D46704710B50446AFF30C
:1003900000802046BDE81040FFF7EFBE014918205D
:1003A000ABBEFEE7260002007047FEE7044802F0FD
:1003B00017F8034801F0F6FF022003F051FBF8E7BD
:1003C0006C04002070470000064802F0ADF90548B3
:1003D00002F092F9034802F07BF9012003F040FBA0
:1003E000F5E700004C05002072B6FEE72DE9F84F56
:1003F000DFF8B8910024A9F1040B23460F2709F177
:10040000040AABF1040EC9E00125A5402A40AA4226
:100410007DD1674ED1F804C0ACEB0608B44532D0AC
:1004200014DCBCF1030F3AD009DCBCF1000F2AD078
:10043000BCF1010F1CD0BCF1020F31D11DE0BCF1A9
:10044000110F17D0BCF1120F2AD119E0B8F5881F8F
:1004500019D006DCB8F5803F15D0B8F5801F1FD144
:1004600011E0B8F5001F0ED0B8F5041F18D10AE04E
:10047000CB6815E0CB681B1D12E0CB6808330FE09A
:10048000CB680C330CE08B682BB1012B4FF00803C9
:1004900003D0456104E0042302E0056100E000238D
:1004A000FF2A01D8064601E000F104064FEA840560
:1004B00001D9A5F12005D6F8008007FA05FC28EA45
:1004C0000C0803FA05F548EA0508C6F800804D68EF
:1004D000ED0062D5374DAE6946F00106AE61AD69FB
:1004E00024F0030605F001050095334D06EB050CDD
:1004F000DCF80850A607360F07FA06F825EA0805C3
:10050000DFF8B880404503D14FF0000817E044E021
:10051000DFF8AC80404502D14FF001080FE0DFF872
:10052000A480404502D14FF0020808E0DFF898802F
:10053000404502D14FF0030801E04FF0040808FAEB
:1005400006F848EA0508CCF808804D68D9F800603C
:10055000ED024D4601D5164300E096432E604D68EE
:10056000DAF80060AD02554601D5164300E0964327
:100570002E604D68DBF80060AD035D4601D5164383
:1005800000E096432E604D68DEF80060ED0375468E
:1005900001D5164300E096432E60641C0D682A4680
:1005A000E5407FF431AFBDE8F88F0000080401405A
:1005B000000011100010024000000140000801403E
:1005C000000C01400010014000140140C26821EA03
:1005D00002030A4043EA0241016170470AB1016126
:1005E00070470904FBE7000001488068704700007D
:1005F000140000200248816802781144816070472D
:1006000014000020074810B5016841F01001016096
:10061000032000F07BF80F2000F006F800F024F82B
:10062000002010BD0020024070B50D4D04464FF46F
:100630007A712878B1FBF0F00A490968B1FBF0F053
:1006400000F0C2FA48B9102C07D200222146501EF1
:1006500000F03CF800206C6070BD012070BD00000F
:1006600014000020100000200F4808B5816941F0F7
:1006700001018161816901F001010091C16941F0CD
:100680008051C161C069002200F0805000900F21AC
:10069000901E00F01BF80548416821F0E06141F030
:1006A0000071416008BD00000010024000000140E0
:1006B000002809DB00F01F02012191404009800061
:1006C00000F1E020C0F8001170470000F0B40E4BBC
:1006D0001B680C46C3F30223C3F10705042D00D9A0
:1006E0000425191D072901D2002300E0DB1E012685
:1006F00006FA05F1491E214099409E40761E16409B
:100700003143F0BC01F005B90CED00E0064900F002
:10071000070208684FF6FF03184040EA0220034A28
:1007200010430860704700000CED00E00000FA057F
:100730002DE9F0470F46050061D0434E306800F0C8
:100740000700B84209D2306820F007003843306013
:10075000306800F00700B84251D128683B4C81074F
:1007600012D5400703D5606840F4E06060602878E7
:10077000000703D5606840F4605060606068A96855
:1007800020F0F000084360602878C00728D068682F
:10079000012810D02168022810D0890700292EDAFC
:1007A000616821F0030101436160FFF71DFF80468E
:1007B00041F288390DE021688903EFE78901EDE70F
:1007C000FFF712FFA0EB0801494502D90320BDE85D
:1007D000F0876068696800F00C00B0EB810FEFD122
:1007E000306800F00700B8420BD9306820F00700ED
:1007F00038433060306800F00700B84201D0012073
:10080000E5E72878400705D56068E96820F4E060EE
:10081000084360602878000706D56068296920F4DD
:10082000605040EAC100606000F018F86168084A52
:10083000C1F30311515CC8400649086006480068CE
:10084000FFF7F2FE0020C2E7002002400010024045
:100850007053000810000020180000200E4A516854
:100860000E4801F00C03042B11D0082B0FD10C48BB
:10087000C1F38343C903C05C0AD55168084AC1F378
:100880004041921E515C054A5043B0FBF1F0704765
:1008900004494843704700000010024000127A00EB
:1008A000B253000800093D002DE9F84F040070D054
:1008B0002078C04DC00749D06868C0F38100012886
:1008C00007D06868C0F38100022809D16868C003B6
:1008D00006D52868800339D560680028E7D035E060
:1008E0006068B0F5803F0BD010B1B0F5A02F11D0EB
:1008F000286820F480302860286820F4802002E0F6
:10090000286840F480302860606890B1FFF76CFE82
:1009100006460AE0286840F480202860F0E700BF1F
:10092000FFF762FE801B642873D828688003F7D520
:100930000CE0FFF759FE064605E000BFFFF754FE46
:10094000801B6428F0D828688003F7D420789A4E5A
:1009500080074FF001094FF0000839D5686810F0A2
:100960000C0F07D06868C0F38100022809D16868BD
:10097000C00306D42868800714D52069012808D14F
:1009800010E02069B0B1C6F80090FFF72DFE0746D1
:1009900005E00AE1FFF728FEC01B0228C4D828683A
:1009A0008007F7D52868616920F0F80040EAC100A7
:1009B00028600DE0C6F80080FFF716FE074604E049
:1009C000FFF712FEC01B022823D828688007F7D43F
:1009D000207800072CD57948A169D9B1C0F80090DA
:1009E000FFF702FE074604E0FFF7FEFDC01B0228EA
:1009F0000FD8686A8007F7D571484FF4FA5100683C
:100A0000B0FBF1F0009000BF0098411E0091FAD2B7
:100A10000EE080E0C0F80080FFF7E6FD074604E046
:100A2000FFF7E2FDC01B022875D8686A8007F7D47B
:100A30002078400760D5E8690027C00008D4E8693D
:100A400040F08050E861E869012700F08050009094
:100A50005C480168C90513D40168834641F480717C
:100A60000160FFF7C1FD824606E000BFFFF7BCFD55
:100A7000A0EB0A0064284ED8DBF80000C005F5D5CD
:100A8000E06801280AD008B1052813D0286A20F0B0
:100A900001002862286A20F0040002E0286A40F081
:100AA00001002862E06841F2883B98B1FFF79CFDA5
:100AB00082460BE0286A40F004002862EEE700BF9F
:100AC000FFF792FDA0EB0A0159455AD8286A800722
:100AD000F6D50CE0FFF788FD824605E0FFF784FDC0
:100AE000A0EB0A0159454CD8286A8007F6D41FB1FB
:100AF000E86920F08050E861E06988B36968C1F373
:100B00008101022944D00228C6F8608004D0FFF792
:100B10006BFD044638E034E0FFF766FD074604E06D
:100B2000FFF762FDC01B02282BD828688001F7D48C
:100B3000206AB0F5803F05D16868A16820F40030D4
:100B400008436860D4E908010843696821F4741116
:100B500008436860C6F86090FFF746FD044606E06B
:100B600025E000BFFFF740FD001B022809D82868D8
:100B70008001F7D51BE000BFFFF736FD001B022800
:100B800002D90320BDE8F88F28688001F4D40EE074
:100B90000128F7D06868226A00F48031914204D1BC
:100BA000616A00F47010884201D00120EAE7002059
:100BB000E8E7000000100240000042428004424288
:100BC000100000200070004010B5401EB0F1807F82
:100BD00001D3012010BD4FF0E02460610F216017A8
:100BE00000F097FE0020A06107202061002010BDCA
:100BF0007047704770B590F83C20012A26D0012438
:100C000080F83C40022280F83D2003685A689D68C5
:100C100022F070060A6832435A600D4B02689A420D
:100C200008D0B2F1804F05D00A4B9A4202D00A4B4D
:100C30009A4204D1496825F080031943916080F8F5
:100C40003D40002180F83C10084670BD022070BD78
:100C5000002C014000040040000800402DE9F04154
:100C60000D46040003D094F83D0018B108E00120BF
:100C7000BDE8F081002084F83C00204600F040F8F8
:100C8000022084F83D002068816844F20702914305
:100C90008160211D206800F03BFD22689068916909
:100CA000166A2B68AF69034340F20330814341EA7F
:100CB0000721A868EF6908434FF6FC418843E968BB
:100CC00040EA0720014328692F6A000140EA073003
:100CD000084369686D6926F0220646EA051529432E
:100CE00093602268906154F8460B0162012004F879
:100CF0001F09E0752076E0762077A0750020B7E721
:100D000000B585B000210091019102910391224B21
:100D100002682248C0219A421BD1C26942F00202F5
:100D2000C261C26902F002020492826942F00402C6
:100D300082618069009100F00400049069461848BF
:100D4000FFF754FB002205211D20FFF7BFFC1D20EB
:100D50001DE0144B9A421CD1C26942F00402C261E8
:100D6000C26902F004020492826942F008028261C0
:100D70008069009100F00800049069460A48FFF776
:100D800035FB002205211E20FFF7A0FC1E20FFF7E7
:100D90008FFC05B000BD00000004004000100240C0
:100DA0000008014000080040000C014070B590F8B8
:100DB0003E60044690F83F5090F8423090F843204F
:100DC000022021B104290ED0012E1BD114E0012EE6
:100DD00018D1012B16D184F83E0084F8420001227C
:100DE0000021206820E0012D0CD1012A0AD184F8CD
:100DF0003F0084F8430014E0012D03D1012B01D101
:100E0000012A01D0012070BD84F83E0084F83F0023
:100E100084F8420084F8430001220021206800F099
:100E2000B3FC01220421206800F0AEFC20680168B8
:100E300041F001010160002070BD70472DE9F041D3
:100E400004460068C66805694FF00007A90713D576
:100E5000B10711D5F91E0161012020772068806952
:100E60008007204602D0FFF7E8FF04E000F0A2F878
:100E7000204600F045F92777680716D5700714D586
:100E800021686FF0040008610220207720688069E3
:100E900010F4407F204602D0FFF7CFFF04E000F0BF
:100EA00089F8204600F02CF92777280715D5300758
:100EB00013D521686FF008000861042020772068AE
:100EC000C0698007204602D0FFF7B7FF04E000F0BA
:100ED00071F8204600F014F92777E80616D5F006D9
:100EE00014D521686FF01000086108202077206871
:100EF000C06910F4407F204602D0FFF79EFF04E057
:100F000000F058F8204600F0FBF82777E80708D0F3
:100F1000F00706D021686FF001000861204600F05C
:100F20003FF9280608D5300606D521686FF0800005
:100F300008612046FFF75CFE680608D5700606D5F6
:100F400021686FF040000861204600F02AF9A806E9
:100F50000AD5B00608D521686FF020000861204648
:100F6000BDE8F041FFF745BEBDE8F08100B585B0B2
:100F7000002100910191029103910068B0F1804F2E
:100F800011D10A48816941F0040181618069694693
:100F900000F00400049003200090022001900390D0
:100FA0000348FFF723FA05B000BD0000001002401F
:100FB00000080140704770B5044690F83C000026D8
:100FC0000D4601280FD0012084F83C006AB1042AA4
:100FD0001DD0082A2FD00C2A3FD00126002084F8EB
:100FE0003C00304670BD022070BD206800F0DAFB86
:100FF0002068816941F0080181612068816921F0E0
:1010000004018161206881692A69114311E0206827
:1010100000F0F0FB2068816941F400618161206883
:10102000816921F480618161206881692A6941EACE
:1010300002218161D2E7206800F008FC2068C169C4
:1010400041F00801C1612068C16921F00401C1615A
:101050002068C1692A69114311E0206800F022FC70
:101060002068C16941F40061C1612068C16921F44F
:101070008061C1612068C1692A6941EA0221C161B8
:10108000ACE710B5040003D094F83D0010B107E0C0
:10109000012010BD002084F83C00204600F01EF81E
:1010A000022084F83D00211D206800F031FB012062
:1010B00084F8460084F83E0084F83F0084F840003D
:1010C00084F8410084F8420084F8430084F8440026
:1010D00084F8450084F83D00002010BD08B5006884
:1010E000B0F1804F08D10548C16941F00101C161EB
:1010F000C06900F00100009008BD0000001002402F
:101100007047000010B50446022249B104290ED0F0
:10111000082913D094F84100012816D0012010BDF1
:1011200094F83E000128F9D184F83E200FE094F8AD
:101130003F000128F2D184F83F2008E094F84000F5
:101140000128EBD184F8402001E084F841200122FD
:10115000206800F019FB0F492068884203D1426CD7
:1011600042F4004242642068884208D0B0F1804FC7
:1011700005D00949884202D00849884204D18168D3
:1011800001F00701062903D0016841F00101016067
:10119000002010BD002C0140000400400008004069
:1011A00070477047FEE7000010B59CB01C2216493E
:1011B0006846FFF755F80021684601F0D7FB134C4D
:1011C00011491C2220601C3107A8FFF749F80021B3
:1011D00007A801F0CBFB0C4960601C2238310EA837
:1011E000FFF73EF800210EA801F0C0FB0649E060C1
:1011F0001C22543115A8FFF733F8002115A801F07F
:10120000B5FBA0601CB010BD00530008000000201A
:101210002DE9F04186B00024244800940194029402
:101220000394816941F010018161816901F010012D
:101230000491816941F020018161816901F02001FF
:101240000491816941F004018161816901F0040127
:101250000491816941F0080181618069144F00F0B7
:1012600008004FF400550490002229463846FFF745
:10127000B5F9DFF8408000223C214046FFF7AEF987
:101280000095022601250396CDE9015469463846AA
:10129000FFF7ACF83C20CDE90005CDE902466946F0
:1012A0004046FFF7A3F806B0BDE8F0810010024009
:1012B000001001400008014010B58AB000240794D6
:1012C0001C2168460894FEF7FDFF1A484FF0804144
:1012D00001604721C0E9011440F2CF71C0E9031455
:1012E0008461FFF7CEFE08B1FFF77EF8079407A9E7
:1012F00010480894FFF77EFC08B1FFF775F86020EE
:10130000CDE900040294002269460A480494FFF7DC
:1013100052FE08B1FFF768F8042269460548FFF756
:101320004AFE08B1FFF760F80248FFF71FFE0AB057
:1013300010BD0000DC02002010B58CB024216846EE
:10134000FEF7C0FF00241648099414490A94C0E926
:1013500000144FF6FF71C0E902410461846103206B
:10136000CDE900040120CDE902040494CDE9054053
:10137000079469460A480894FFF770FC08B1FFF724
:1013800033F8099409A906480A94FFF733FC0028AA
:1013900001D0FFF729F80CB010BD00000004004098
:1013A0002403002010B58CB024216846FEF78AFF84
:1013B00000241648099414490A94C0E900144FF611
:1013C000FF71C0E90241046184610320CDE900049A
:1013D0000120CDE902040494CDE905400794694653
:1013E0000A480894FFF73AFC08B1FEF7FDFF09949C
:1013F00009A906480A94FFF7FDFB002801D0FEF773
:10140000F3FF0CB010BD0000000800406C0300208A
:10141000FEE7000010B5064C012204212046FFF72C
:10142000DDF820460022BDE810400821FFF7D6B8BD
:101430000008014010B5064C002204212046FFF7A9
:10144000CDF820460122BDE810400821FFF7C6B8BC
:101450000008014010B5064C002204212046FFF789
:10146000BDF820460022BDE810400821FFF7B6B8BD
:101470000008014010B5064C012210212046FFF75C
:10148000ADF820460022BDE810402021FFF7A6B8A5
:101490000008014010B5064C002210212046FFF73D
:1014A0009DF820460122BDE810402021FFF796B8A4
:1014B0000008014010B5064C002210212046FFF71D
:1014C0008DF820460022BDE810402021FFF786B8A5
:1014D000000801400C4801F0FFF94FF4FA7002F0E7
:1014E000BFFA094C04F108056034074801F0E6F939
:1014F0000021284601F0A4F90121204601F0A0F9BD
:10150000022002F0ADFAF0E7B4030020FEE72DE977
:10151000F047040011D0206C60648146E06B2064C9
:10152000C4E906218046104603F0D6FD0546E06377
:10153000207828B101283BD038E00020BDE8F087B2
:101540002946606803F0C0FC60622946A06803F089
:10155000BBFCA16A03F002FB0646A062606BA063BD
:10156000206B60634146284603F0B6FD01462063C8
:10157000E06803F0A9FCE0623046616903F070FDA9
:10158000606908D380F00040A16A03F069FD03D2CE
:10159000606980F00040A062D4E9090103F0DEFA3E
:1015A000E16A31E0206980F000402062206AC5E7EE
:1015B0004146284603F090FD616803F085FC07462C
:1015C00060622946A06803F07FFC0646A062606B5B
:1015D000A063206B60630121404603F052FE294660
:1015E00003F06FFD494603F0B9FA01462063E06855
:1015F00003F06AFC0546E0623146384603F0AEFA75
:10160000294603F0ABFA216A03F0A8FA20622169A7
:1016100003F026FD2069C8D380F00040216A03F062
:101620001FFDC3D2BEE710B50028029C16D0002AC9
:1016300014D00170116841605168816000F10C0C98
:1016400091688CE81A0000218163416301630162A3
:10165000C1628162416241640164C16310BD0000E6
:10166000064D4FF400544FF4FA7621462846FEF713
:10167000ADFF304601F06EF9F7E7000000100140C1
:1016800010B5FEF7B7FF02F03FFB012803D0BDE81D
:10169000104002F0CBBA10BD30B58FB0282168469B
:1016A000FEF710FE14210AA8FEF70CFE0121080423
:1016B000CDE900100024029402250491CDE90750E1
:1016C0004FF4E01009906846FFF7EEF808B172B6E3
:1016D000FEE70F20CDE90A054FF48060CDE90C400C
:1016E00002210AA80E94FFF723F8002801D072B651
:1016F000FEE70FB030BD70470148FFF79FBB000009
:10170000240300200148FFF799BB00006C03002070
:10171000F0B50268194B1A4C1A4D4FF080479842A9
:1017200005D0B84203D0A04201D0A84203D122F094
:1017300070064A683243984205D0B84203D0A042AE
:1017400001D0A84203D122F44074CA6822434C69F4
:1017500022F08002224302608A68C2620A688262C2
:10176000984201D109690163012141610169C907F9
:1017700003D0016921F001010161F0BD002C01409D
:10178000000400400008004010B501F01F030121D3
:10179000046A99408C430462016A9A4011430162D1
:1017A00010BD000030B5036A026A22F00102026235
:1017B0004268846924F073050C682C4323F0020509
:1017C0008B682B430A4DA8420BD123F00805CB6848
:1017D00022F440722B434D6923F0040315438A69B8
:1017E0002A434260846149684163036230BD00005E
:1017F000002C014030B5026A036A23F01003036233
:10180000436884690D6824F4E64444EA05248D683D
:1018100022F0200242EA05120B4DA8420ED1CD68FB
:1018200022F0800242EA05124D6923F4406343EA44
:1018300085038D6922F0400243EA85034360846199
:1018400049688163026230BD002C014030B5036AF3
:10185000026A22F4807202624268C46923F400734F
:1018600024F073050C682C438D6843EA05230C4D66
:10187000A8420ED1CD6823F4006343EA05234D69E5
:1018800022F4405242EA05128D6923F4806342EA51
:1018900005124260C4614968C163036230BD000043
:1018A000002C014030B5046A026A22F480520262C0
:1018B0004268C3690D6823F4E64343EA05238D6853
:1018C00024F4005444EA0534064DA84204D14D697D
:1018D00022F4804242EA85124260C3614968016491
:1018E000046230BD002C0140FEE7490050EAC120EF
:1018F00018BF04204A0D18BF40F0010040F2FF72EB
:10190000B2EB515F08BF40F00200012808BF05207C
:1019100070470907090E002804DB00F1E02080F879
:101920000014704700F00F0000F1E02080F8141D53
:10193000704700002DE9F74F144694B00021C4E928
:1019400002111599079121F00045C9498D4206DC25
:101950001599C4E9000117B00020BDE8F08FC54912
:10196000DFF814A3A9423CDD0799C44E0029C44FF7
:10197000C44A1599534619DD02F0DAFF554506D0E1
:10198000C14AC24B02F0D4FFC4E900010AE04FF0A3
:10199000D352BE4B02F0CCFF32463B4602F0C8FFAA
:1019A000C4E9000117B00120BDE8F08F02F0B4FADD
:1019B000554506D0B44AB54B02F0AEFAC4E9000171
:1019C0000AE04FF0D352B14B02F0A6FA32463B4642
:1019D00002F0A2FAC4E9000117B04FF0FF30BDE8F1
:1019E000F08FAB49A942159978DB21F0004183467D
:1019F0008846A84AA84B02F075FD0022A74B02F0CA
:101A00008BFA02F0D9FC099002F005FD06460F465C
:101A10009C4A534602F066FD43465A4602F096FE43
:101A200080468A46984A994B3046394602F05AFD1C
:101A30002A0D01250B924246534602F087FE032DE4
:101A4000C4E9000139D00B98C1F30A51401A05EBE3
:101A500045111139814230DA9148C346784400EB90
:101A60000510CDF80CA00C90D0E900233046394683
:101A700002F038FD02460B46049106905846039941
:101A800002F056FF80468A4602460B4658460399A6
:101A900002F04EFF049B069A02F04AFF83460C9820
:101AA00003913946D0E90223304602F01BFD5A4625
:101AB000039B02F03DFF6D1CBDE707980028A2BF05
:101AC000099817B0BDE8F08F616881F0004161604E
:101AD000099817B04042BDE8F08FFFE7844615989B
:101AE000C1F31301C0F30A50A0F2F5304FEA6018B9
:101AF00000F01F06C6F1200013900020069007900A
:101B000041F4801E05206D4676B1664A08EB00015F
:101B10007A4452F8213002EB8101B3404A681399AC
:101B200022FA01F1194305E05F4908EB000279440C
:101B300051F82210A1FB0E27A1FB0C131A449A4264
:101B400034BF0123002303EB070A05EB8003D3E92D
:101B500001B70F448F4234BF0121002193448B44CD
:101B600011B1934502D903E0934501D2012100E070
:101B70000021C3E901B7514445F82010011EA0F12E
:101B80000100C1DC0298059F00F10050800F129007
:101B90000298DDE90356800002F03DFC83462846AA
:101BA0000D9102F04FFC6FF01D0203F03CFBCDE9FC
:101BB0000E01304602F046FC6FF03D0203F033FBAD
:101BC00080468A46384602F03DFC6FF05D0203F025
:101BD0002AFB074642465346119102F09DF9DDE982
:101BE0000E2302F099F95A460D9B02F095F9002553
:101BF0000E465A4628460D9B02F09AFEDDE90E235A
:101C000002F096FE4246534602F092FE3A46119B7F
:101C100002F09CFDDFF898A0244A534602F062FCD3
:101C200007468846234A244B3146284602F05AFC90
:101C30003A46434602F070F9074688464FF0A842FC
:101C400053463146284602F04DFC3A46434602F0E0
:101C500063F9159A12F0004F04D0129A81F00041F6
:101C600052421292C4E90001129817B0BDE8F08FF9
:101C7000FB21E93F7CD90240FB21F93F7370032E21
:101C80008A19A33B000040543163621A61B4D03D0D
:101C9000FB21394183C8C96D305FE43F0000E03F5C
:101CA000C03A00003C3A00001E3A0000182D44548F
:101CB000FB21F93D3326A611460B113C2DE9FF4DC2
:101CC00021F0004807460C46B8F1795F08DA02F0C7
:101CD00073FB002801BF0020324904B0BDE8F08D3D
:101CE0003A4623461046194602F0FCFB05460246DA
:101CF0002D480E460B460621784400F05DF82A4632
:101D0000334602F0EFFBDDE9022382468B4638467C
:101D1000214602F0E7FB04460F4652465B46284642
:101D2000314602F0DFFB22463B4602F001FE074649
:101D30008A464FF0FF322846314603F074FA1B4AB8
:101D400090450ADA3A46534602F0F2FD04B000220A
:101D5000BDE8F04D134B02F0F9BC154A4245A8BF4F
:101D6000A8F500154FF00004B8BF124D22462B46CF
:101D700002F0DEFD0646884622462B460020094931
:101D800002F0D6FD04460D463A46534630464146DB
:101D900002F0CEFD04B022462B46BDE8F04D02F025
:101DA000D5BC00000000F03FEC3700003333D33FD8
:101DB0000000E93F0000D23F2DE9F0414F1E00EB4B
:101DC000C7010446D1E9000115461E4637F0060258
:101DD0000DD02A46334602F085FB7F1E04EBC70375
:101DE000D3E9002302F098F837F00602F1D1022F70
:101DF00025D0042F13D0062F18BFBDE8F0812A4646
:101E0000334602F06FFBD4E90A2302F085F82A4634
:101E1000334602F067FBD4E9082302F07DF82A4636
:101E2000334602F05FFBD4E9062302F075F82A4638
:101E3000334602F057FBD4E9042302F06DF82A463A
:101E4000334602F04FFBD4E9022302F065F82A463C
:101E5000334602F047FBD4E90023BDE8F04102F02D
:101E60005BB800002DE9FF4D054621F0004084B02D
:101E70000C46B0F1795F0BDA2846FFF736FD0428EF
:101E800008BF00F07FF8284608B02146BDE8F08D75
:101E90002A460B46104602F025FB06460F462A4608
:101EA000234602F01FFB804626488A4632463B46C0
:101EB00005217844FFF780FF83461098029160B3B4
:101EC000214A224B4046514602F00CFBCDE900016D
:101ED0005A4640465146029B02F004FB8246884621
:101EE000DDE906014FF0FF3203F09DF9524643460B
:101EF00002F01EFD32463B4602F0F4FADDE906230D
:101F000002F016FDDDE9002302F012FD08B02A46BA
:101F10002346BDE8F04D02F019BC0B465A46304648
:101F2000394602F0DFFA084A084B01F0F5FF424655
:101F3000534602F0D7FA08B02A462346BDE8F04DD2
:101F400001F0EABF32370000495555555555C5BF18
:101F5000002213461046014902F09AB80000F03FF3
:101F6000012203F060B901F0D7BF002213461046EA
:101F7000114602F08DB840F2013200204FF0E041EE
:101F800003F051B9024A0020110703F04CB90000D8
:101F900001FDFFFF2DE9F84F04460D4621F00040FA
:101FA00000917349814211DC7249884201DC06D1FB
:101FB0002CB120462946BDE8F84FFFF7D1BF6E4847
:101FC000002DCCBF6D496E49BDE8F88F6D49814247
:101FD00011DD6D498142D8BF4FF0FF366DDD2046DF
:101FE0002946FFF782FC042808BFFFF7CBFF2046F5
:101FF0002946BDE8F88F6549654F25F000458142C7
:1020000033DD6449814219DD002632464FF08043BA
:102010002046294601F080FF80468A46012220465C
:10202000294603F000F900223B4602F081FC4246BB
:10203000534602F02DF804460D463EE001260022EC
:10204000BA463B462046294601F066FF80460F46C9
:10205000002253462046294602F06AFC42463B468F
:1020600002F016F804460D4627E04B4981421BDD7D
:10207000DFF828A10226002253462046294602F016
:1020800031FA00223B4601F047FF80460F4600220E
:1020900053462046294602F04BFC42463B4601F09F
:1020A000F7FF04460D4608E0032622462B46002093
:1020B0003B4901F0EDFF04460D4622462B461046F3
:1020C000194602F00FFA8B46824602460B4602F092
:1020D00009FA07460246334888460B4606217844EB
:1020E000FFF76AFE52465B4602F0FCF982462E4834
:1020F0008B463A46434605217844FFF75DFE3A4653
:10210000434602F0EFF902460B46002E5046594670
:102110000CDA01F001FF22462B4602F0E3F901B090
:1021200022462B46BDE8F04F02F010BB01F0F4FE52
:1021300022462B4602F0D6F91C4A7A4402EBC6032B
:10214000D3E9002302F0F4FB22462B4602F0F0FB19
:10215000174A7A4402EBC603D3E9002302F0F6FAE9
:10216000009A002AB8BF81F00041BDE8F88F000056
:10217000000010440000F07F182D4454FB21F93F6B
:10218000FB21F9BF0000DC3F0000203E0000F33FD0
:102190000000F03F0000E63F008003400000F83FF1
:1021A0000000F0BFD633000094330000323300004B
:1021B000FA3200002DE9F04D9446CCF1000423F0F2
:1021C00000464CEA0404594F46EAD4749A468846BD
:1021D00021F00042BC4206D8454240EA050442EAEA
:1021E000D474BC4204D9BDE8F04D6246FFF7BBBED3
:1021F000AAF14055A5F17F6555EA0C040BD00224E5
:1022000004EAAA744A4DDFF82CE144EAD87452EA91
:10221000000B04D00CE0BDE8F04DFFF7BBBE002C76
:1022200014BF012CBDE8F08D022C30D0032C32D02D
:1022300056EA0C0B0AD0BE4220D1BA4209D126F090
:10224000804622F080423346114617E000291ADB0F
:1022500025E0DFF8E4B0FB44002C04BFDBE900011B
:10226000BDE8F08D012C02BFDBE9000181F00041E7
:10227000BDE8F08D022C0AD0032C0CD0BA4212D14A
:10228000B8F1000F0BDA2A482C49BDE8F08D28463A
:102290002B49BDE8F08D28467146BDE8F08D2448F5
:1022A0002849BDE8F08D921B12153C2AC4BF204F6F
:1022B000244E10DCBAF1000FBEBF12F13C0F002714
:1022C0003E4608DB624601F0E3FE21F00041FFF7E5
:1022D00061FE07460E4694B1012C08BF86F0004609
:1022E0000DD0194A194B022C3846314615D002F050
:1022F0001FFB2A46BDE8F04D114B02F019BB00222E
:1023000013463846314602F01BF804BF0220FEF7A0
:1023100008F838463146BDE8F08D02F009FB2A4640
:10232000BDE8F04D064B02F011BA00000000F07F4E
:10233000182D4454FB2109C0BE320000FB21F9BF17
:10234000FB210940FB21F93F075C143326A6A13C81
:102350002DE9F04105460C460F4E104F086809E084
:102360003146286802F0B8FE28603146206802F045
:10237000B3FE2060B842F3DC094FB8420AD93146B7
:10238000286802F0EBFB28603146206802F0E6FB8B
:102390002060F2E7BDE8F081DB0FC940DB0F494068
:1023A000DB0F49C07FB5044600F1DC01D4E93423DA
:1023B000D83000F09BF820680225416AC36A426960
:1023C0008DE82E0004F19C02111FC368081F00F065
:1023D00039F804B02046BDE8704000F099B800001C
:1023E00030B587B0044600F00FFA2060114801AD07
:1023F0000DF1100C0EC885E80E0007C800250095E9
:102400008CE807000C4B01AA2946201DFFF70BF9A9
:102410004FF0804304AA002104F14C000095FFF71F
:1024200002F9064844F8A00F60600548A06007B0B4
:1024300030BD000098530008CDCC4C3F9A9919BF8D
:10244000DB0F49402DE9F05F8046DDE90A0ADDF83F
:10245000309014460F461AF0FF4F02D119F0FF4F8B
:102460003ED0194602F038FE1E4902F0EBFBDFF8C1
:1024700078B0594602F028FD206002F043FB01F0DD
:10248000B1F901F017FD0646206802F03BFB00F0B1
:10249000D1F801F00FFD05460D9802F0CDFC59462C
:1024A00002F0D0FB04464946504602F057FB4FF07D
:1024B000FF3102F0E6FE214602F006FD0446294601
:1024C00002F002FDD8F8001002F048FBC8F8000046
:1024D0003146204602F0F8FC396802F03FFB3860D4
:1024E000BDE8F09F0000784300007A442DE9F041F8
:1024F0000C4605461E4617461946104602F0ECFDEE
:1025000028603146384602F029FB2060BDE8F081A2
:102510002DE9F041044654F8941FE06802F0DCFD18
:10252000A06105466168206902F0D6FDE0610646BB
:10253000A168606902F0D0FD2062284602F0E2FA4C
:1025400007460D46304602F0DDFA3A462B46FFF7C5
:1025500031FE01F0AFFC6062606802F0D3FA4FF028
:1025600080460022334600F02BFA07460D462068CD
:1025700002F0C8FA0022334600F022FA3A462B460F
:1025800001F0CAFC01F07EF901F094FCA062206920
:1025900002F0B8FA0022334600F012FA07460D4660
:1025A000E06802F0AFFA0022334600F009FA3A463A
:1025B0002B4601F0B1FC01F065F901F07BFC01460E
:1025C000E062A06A943C02F087FD194920F00040C7
:1025D00004F14C05884203DA012084F8C40002E0CB
:1025E00094F8C40088B104F1B40104F1A800FFF725
:1025F000AFFED4F8A82054F89C1F2846FEF787FFAA
:10260000A06300206063BDE8F081D4F8B82054F8DE
:102610009C1F2846FEF77BFF44F8380FA4F1D0003A
:1026200054E90612D43CFEF772FFC4F8D000EAE782
:102630000AD7A33C00B5244B21F0004287B09A4250
:10264000DCBF0022134629DD204B9A4208D140B955
:102650004FF00100FDF765FEFFF787FC07B000BDF6
:1026600003DBFFF77DFC07B000BD02AAFFF762F9AC
:1026700010F0030104BF0DF1080C9CE80F000DD011
:10268000012001290ED0022914D00DF1080C009070
:102690009CE80F00FFF7E6FB07B000BDFFF70EFB5D
:1026A00007B000BD0DF1080C00909CE80F00FFF78B
:1026B000D9FB05E00DF1080C9CE80F00FFF7FEFACE
:1026C00007B081F0004100BDFB21E93F0000F07F31
:1026D00070B506465FF0000404EB440006EBC00052
:1026E0000546012100F066F82846012100F02EF889
:1026F000641C022CF0DB70BD09490968496A09B203
:10270000CA1701EB92718910018006490968496A6C
:1027100009B24942CA1701EB9271891001837047CF
:10272000240300206C03002010B504460421054852
:10273000FEF73CFB04210448FEF738FB012020860D
:1027400010BD0000240300206C0300202DE9F0419F
:1027500004460F46B0F9000002F056FB114902F0A2
:1027600071FA114902F0B0FB012102F08AFD0F4914
:1027700002F0AAFB0E4E314602F064FA0546E06014
:10278000384602F059FB314602F05CFA064628460C
:10279000216902F0A1FC314602F054FAC4E9045068
:1027A000BDE8F0810000C34300000842DB0F494050
:1027B00000007A442DE9F041044606884088301A2A
:1027C00007B2A780084602F037FB0A4902F03AFA3E
:1027D0000546384602F018FB074902F033FA29464D
:1027E00002F030FA054902F02DFAA0606680BDE8DB
:1027F000F081000000007A44000050410000F041E8
:10280000004870476C040020004870474C050020C9
:10281000FDF7F8FEFEF740FFFEF7FAFCFEF74CFD71
:10282000FEF78AFDFEF7BEFDFEF7BEFC00F099F84C
:10283000FEE701460020842900D0C81C7047000034
:102840002DE9F04104460E46D4E91212FEF75FFE70
:10285000054620F0004002F0B7FAA4F854001548ED
:10286000154F4FF4000136B1012E14D18D4214DB07
:10287000FEF700FE18E08D4202DBFEF7CBFD06E01E
:10288000854202D3FEF7D6FD01E0FEF7E3FD39688D
:10289000B4F854004863BDE8F081854202D3FEF7E6
:1028A000F9FD01E0FEF706FE3968B4F854008863CC
:1028B000F1E7000000008080DC020020016851F890
:1028C000D82F42654968C0F8AC1041688A68026533
:1028D000096AC0F8A810704770B588B0044600F0C7
:1028E0002BF8FFF78DFF2060FFF78EFF60600F4829
:1028F00001AD0DF1100C0EC885E80E0007C80C4D97
:1029000000958CE807000B4E01AA3346002104F124
:102910000800FEF788FE334604AA002104F1600097
:102920000095FEF780FE08B070BD000080530008DF
:102930000000484200007A4510B500210448FEF727
:10294000E1FBBDE8104004210148FEF7DBBB0000BD
:10295000DC02002010B500B9012001F081F8002050
:1029600010BD10B501F0A2F8002010BD7FB50D46D6
:1029700004464169B0F9080081B1A16971B1FFF75E
:1029800058FFD4E905128DE80700D4E900102B4662
:10299000226901F08EF9039004B070BDFFF749FF82
:1029A00003A9CDE90001208A2B4682B2D4E90010A8
:1029B00001F052F9012801D00020EDE70398EBE780
:1029C0002DE9F04D1D460C4698B0174621F0004108
:1029D00023F00043002814BF4FF0010C4FF0000C0F
:1029E0000CEB440CFE4A0CEB02064FEA620C664507
:1029F0002BD33E0018BF012606EB45061644F94AC4
:102A0000964222D3F84A53EA070C02D0944205D1E9
:102A100048B918B000201146BDE8F08D002808BF65
:102A20004FF0000C01D04FF0010C0CEB440212F5FA
:102A3000001F0AD8002F14BF4FF0010C4FF0000CFC
:102A40000CEB450212F5001F07D918B03A462B4689
:102A50002146BDE8F04DFFF786BA0022DFF88CA3CF
:102A6000002CB8BF534526DADFF884C36345A8BFFE
:102A7000022220DADFF870C39C451CDCDFF874C347
:102A80000CEB235CBCF1140F08DDCCF1340627FA03
:102A900006FC0CFA06F6BE420DD108E05FB9CCF197
:102AA000140623FA06FC0CFA06F69E4203D10CF03B
:102AB0000102C2F1020251EA000C19D1002D17DA0D
:102AC000002C18BF022A01D0012A07D00220FDF7EE
:102AD00028FC18B0BDE8F04DFFF73ABA0220FDF728
:102AE00020FCFFF735FA18B081F00041BDE8F08D09
:102AF000B7F1000C6CD1534525D104F1804212F599
:102B0000801201BF00280020B74918B008BFBDE8F7
:102B1000F08DB548884207DC002DA1BF60462946EC
:102B200018B0BDE8F08D07E0281E05DA80F00041FE
:102B300018B06046BDE8F08DAF497944D1E9000195
:102B400018B0BDE8F08DDFF8A0C2634525D1002D97
:102B50001FDA19B1514512D1D8B909E0002840F067
:102B6000EC82A24A214618B062F31E01BDE8F08D46
:102B70000020214618B060F31E01BDE8F08D08DA90
:102B800018B02346BDE8F04D02460020614601F032
:102B90007FBA18B02146BDE8F08D514518DAB5F17D
:102BA000804F0DD0A5F1005CBCF1FF5C10D1B4F1F9
:102BB000000C0DDB18B06146BDE8F04D00F062BEC0
:102BC000234618B00246BDE8F04D194601F08ABC14
:102BD000060024F0004C3BD1D9B1514533D1002C33
:102BE00006DD002DA1BF0020514618B0BDE8F08DD4
:102BF000002C01DD002D1BDB002C13DA002D11DB76
:102C0000012A4FF0000014BF78497C4918B0BDE894
:102C1000F08D022A18BF002C0AD0012A08D1002CFE
:102C200006DA0AE0002CB8BF002D11DA012A04D020
:102C3000002018B00146BDE8F08D18B000204FF01C
:102C40000041BDE8F08DA1F14050B0F17F601AD095
:102C5000012000EBE47050EA020421D0624C521EC5
:102C60004FF0000B104304BF4FF0000B644C65485D
:102C700083427CDD644A654893421FDD884217DB4E
:102C8000002D25DB37E0002C00DA4AB1022A0CBF08
:102C900001204FF0FF3018B0BDE8F04D01F0BBBB94
:102CA0000120FDF73EFB18B0BDE8F04DFFF75DB920
:102CB0004D4A8A4202DC002D0ADC1CE0814202DA25
:102CC000002D18DA04E0484B994220DD002D12DD7A
:102CD0000220FDF726FBFFF74EF905460E460022BF
:102CE00053465846214601F0FDFB18B066F31E011D
:102CF0002846BDE8F08D0220FDF713FBFFF742F9EF
:102D00000A46214618B062F31E01BDE8F08D00228C
:102D10003046614601F00CFE80460E466FF001021F
:102D200002F081FA4FF05532394B01F00FFD424667
:102D3000334601F0D7FB0022364B01F007FD8246F7
:102D40004246334604911046194601F0CBFB5246E9
:102D5000049B01F0C7FB8A4600904FF0C0422E4B07
:102D60004046314601F0BEFB2C4A2B4B00E027E0E9
:102D7000CDE906015146009801F0B4FB824601916D
:102D8000274A284B4046314601F0ACFB5246019B96
:102D900001F0CEFD82460B4602460591DDE90601B3
:102DA00001F0BAF8DDE9062300268846304601F036
:102DB000BFFD5246059B01F0C9FC024600F07EB9FA
:102DC0000020B1F5801F07DA35223046614602F057
:102DD0002AFA06466FF0340000EB215024E0000090
:102DE000FFFF1F00FFFF0F000000F03F0000F07F1B
:102DF0000000404301FCFFFFDA2900000000F0FF63
:102E00000000F0BF0000E0410000F043FFFFEF3F93
:102E10005555D53F0000E03F4715F73FFE822B6533
:102E200044DF5DF80BAE543EA0F2FF300190C1F3D9
:102E3000130040F07F6141F040510291FE49884209
:102E4000D8BF002004DDFD498142C8BF012001DD5B
:102E50000D9008E000200D900198401C0190029810
:102E6000A0F5801002900299F54878440B910D99D5
:102E700000EBC100D0E900230F9330460A920B9972
:102E800001F056FDCDE90601DDE90A2130460F9B30
:102E900001F042F802460B460020EA4901F0F8F83A
:102EA000059102460B460090DDE9060101F01AFB90
:102EB0001490E5488A464FF000087844029900686B
:102EC00012904FF0005040EA61010D980F9B01EB0A
:102ED000804000F5002109910A9A129801F028FD1E
:102EE00032460B9B01F032FC4246534601F0FAFA9F
:102EF0000646029140465146099B129A01F0F2FAA9
:102F0000DDE9062301F022FC3246029B01F010FDB0
:102F1000059B009A01F0E6FA0091149A049053463A
:102F20001046194601F0DEFA06460246C7480B462F
:102F3000029106217844FEF73FFFCDE90510029B80
:102F400032461046194601F0CDFADDE9053201F0AE
:102F5000C9FA05910646534640461946149A00F0B0
:102F6000DBFF009B049A01F0BDFA3246059B00F09E
:102F7000D3FFCDE90510424653461046194601F0ED
:102F8000B1FA0022B24B02910A9000F0C5FFDDE9D0
:102F9000053200F0C1FF0E464246AD4B404601F0FF
:102FA000C7FC029B0A9A01F0C3FCDDE9053201F07F
:102FB000CDFB424602910A9033461046514601F03D
:102FC00091FACDE906015346149A02990A9801F044
:102FD00089FA8A460290334642460099049801F0E5
:102FE00081FA5346029A00F097FF82460B4602464A
:102FF0000591DDE9060100F08FFFDDE906230020E1
:103000008846064601F094FC5246059B01F09EFB63
:10301000824609914FF060428E4B3046414601F0A6
:1030200061FA049006918C4A8A4B5046099901F046
:1030300059FA82460291894A894B3046414601F04D
:1030400051FA5246029B00F067FF864B7B440D9A73
:1030500003EBC203D3E9002300F05EFF0E9007915B
:10306000019801F0D8F90591DDE9061382460E9A20
:10307000049800F051FF7C4A7A440D9B02EBC30395
:10308000D3E900230093029200F046FF5246059BCD
:1030900000F042FF0026884652463046059B01F06C
:1030A00047FC009B029A01F043FC069B049A01F046
:1030B0003FFC079B0E9A01F049FB024600200B469D
:1030C00002903846294601F00DFA824601912B46BE
:1030D00038461946029A01F02BFC3246434601F06D
:1030E00001FA5246019B00F017FF07468A46324616
:1030F00043462946029801F0F5F905460E463A4640
:10310000534600F009FF594A8846914221DBA8EB5B
:10311000020353EA000210D12A46334601F008FCAC
:10312000CDE90401524A534B3846514600F0F4FEB3
:10313000DDE9042301F0D4FA21D20220FDF7F1F8F1
:10314000FEF719FF0A46214618B062F31E01BDE8DA
:10315000F08D494B28F000429A4210D3474A08EBC1
:10316000020353EA00027FF4C6AD2A46334601F05B
:10317000DFFB3A46534601F0B3FA7FF6BCAD0022BE
:10318000019228F000403E493E4A01EB2051824224
:1031900023DA481C4FF4801121FA00F040443A4AE7
:1031A000C0F30A517A44394BA1F2FF31CB4020EAF7
:1031B0000303C0F3130040F48010C1F11401C840B0
:1031C00012680190B8F1000FBCBF40420190284640
:1031D000314601F0ADFB05460E462A4633463846D9
:1031E000514600F099FE4FF000084246284B4046F9
:1031F000059101F077F9CDE90601264A264B4046B4
:10320000059901F06FF9009102902A463346404635
:10321000059901F08DFB3A46534601F097FA1F4A93
:103220001F4B01F05FF9009B029A00F075FE074604
:10323000884602460B4635E08E9803007AB60B00AE
:103240005A2500000000F03F5A260000C02400006C
:103250000000084009C7EE3FFD033ADCF5015B14AE
:10326000E02F3EBE982300005C2300000000904049
:10327000FE822B654715973C00CC904000346F3F91
:1032800001FCFFFF0000E03F70230000FFFF0F0084
:10329000432EE63F396CA80C615C20BEEF39FAFE84
:1032A000422EE63FDDE9060100F036FEDDE90623A9
:1032B00005460E4601F03CFB3A46434601F046FA0D
:1032C0000F462A46334600901046194601F00AF987
:1032D000824602462E4888460B4605217844FEF772
:1032E0006BFD5246434601F0FDF82A46334601F095
:1032F0002DFA80468A463B4628463146009A01F020
:10330000F1F83B46009A00F007FE0691009000227B
:103310004FF080434046514601F00AFB0F460C90A7
:10332000424653462846314601F0DCF83B460C9AAB
:1033300000F0AEFE069B009A01F0FAFA2A463346E8
:1033400001F0F6FA0022134B01F000FA054601984D
:103350000E4601EB00510815002810DC28463146C6
:10336000019A01F060FFFEF7C0FA042808BFFEF7DB
:1033700009FE28463146019A01F055FF05460B46E5
:1033800018B02A4658462146BDE8F04D01F0AAB8CB
:10339000482100000000F03F2DE9F041184C0F4695
:1033A0000546E6682068001D00F092FA38B92068EA
:1033B00090F82C1001208840216981432161681C0C
:1033C00007D137B12168BDE8F0410E48091D00F072
:1033D000C3BA20683544B5424560216805D2A06B68
:1033E000BDE8F041091D00F09FBA606B091D00F0B7
:1033F0009BFAA06A854200D2A562BDE8F081000078
:10340000200000205C0600202DE9F041054600F078
:10341000AFFA2E4CA068401CA06020682C4F10B161
:10342000606940B32DE02560A068012829D10026FD
:1034300006EB860007EB800000F068FA761C072E8A
:10344000F6D323488C3000F061FA2148A03000F018
:103450005DFA1F48B43000F059FA1D48C83000F03A
:1034600055FA1B48DC3000F051FA19488C30606383
:103470001430A06305E02068E96AC06A884200D879
:103480002560606A401C6062E96A01202269884008
:103490001043206101EB810007EB8000291D00F043
:1034A0005BFA00F085FA606900280CD02068E96AB0
:1034B000C06A884207D207494FF080500860BFF3C6
:1034C0004F8FBFF36F8FBDE8F08100002000002018
:1034D0008005002004ED00E010B5044690F851008E
:1034E00058B101280CD002280FD0502080F3118849
:1034F000BFF34F8FBFF36F8FFEE7206B00F06CFAC6
:103500002046BDE8104000F067BA10BD10484FF4E7
:103510004061420706D0C01D0D4920F00700411A46
:10352000C1F540610B4A00230144C2E90003083998
:10353000183A21F0070111604B600B600B1AC0E9CB
:10354000001393604FF000405360506170470000DB
:103550007006002074000020144E154CA6F1C80718
:103560004FF08058DFF84C9012E000BF00F000FAF6
:10357000F068C568281D00F0ABF9A068401EA06087
:103580006068401E606000F013FA2846FFF7A4FF51
:1035900060680028EAD138680128F9D9C9F80080A4
:1035A000BFF34F8FBFF36F8FF2E700004806002094
:1035B0002000002004ED00E02DE9F0479A46DDE907
:1035C000098481466FF00303206B03EB82021044F1
:1035D000089E20F00707780707D0502080F3118855
:1035E000BFF34F8FBFF36F8FFEE7002561B100205F
:1035F00023180A5C83F834200A5C12B1401C10289E
:10360000F6D384F8435001E084F83450072E00D3F9
:103610000626E662C4E91165201D00F082F904F176
:10362000180000F07EF92461C6F107006462A06111
:10363000E56484F8505052464946384600F0C0F8D8
:103640002060B8F1000F01D0C8F80040BDE8F08755
:1036500030B5114900E011460A688242FBD34B683D
:103660005C18844203D140681844486008464368A7
:103670001C18944209D1084C183C2468A24209D075
:1036800052681A4442600A6812680260814200D09F
:10369000086030BD0460F9E7740000200648416B03
:1036A000096829B1416BC968C96849688162704776
:1036B0004FF0FF31FAE70000200000200848406882
:1036C000401C4FF0500080F3118804D0BFF34F8F9F
:1036D000BFF36F8FFEE7BFF34F8FBFF36F8FFEE730
:1036E0007C0000202DE9F0410546002700F014FA87
:1036F000324E306808B9FFF709FF706905424ED1B4
:10370000C5B3083568070ED005F00700C0F1080002
:103710000544680707D0502080F31188BFF34F8F0E
:10372000BFF36F8FFEE72DB37068854237D823480B
:10373000183001460C6801E020460C466168A94239
:1037400002D221680029F7D131688C4227D007685E
:103750002168016060680837411B10290FD9601982
:10376000420708D0502080F31188BFF34F8FBFF37A
:103770006F8FFEE713E041606560FFF769FF6168E6
:103780007068401A7060B268904200D2B060706990
:1037900001430020C4E90001F068401CF06000F023
:1037A00027FB780707D0502080F31188BFF34F8F95
:1037B000BFF36F8FFEE73846BDE8F0815C00002064
:1037C00010B5031F4FF080741C601B1F21F0010116
:1037D0001960191F024B0B60143940380A6010BD84
:1037E000BD36000800B5254B21F0004287B09A4253
:1037F00003DC0022134600922BE0214B9A4208D1B1
:1038000040B94FF00100FCF78CFDFEF7AEFB07B0AE
:1038100000BD03DBFEF7A4FB07B000BD02AAFEF764
:1038200089F810F003014FF001000DD0012914D0E8
:1038300002291AD00DF1080C9CE80F00FEF73EFAA1
:1038400007B081F0004100BD0DF1080C00909CE82C
:103850000F00FEF707FB07B000BD0DF1080C9CE858
:103860000F00FEF72BFA07B000BD0DF1080C009019
:103870009CE80F00FEF7F6FAE2E70000FB21E93FC3
:103880000000F07F2DE9F04106460F4600F06AFF88
:10389000041E0D4618BF0120284320F00040C0F14F
:1038A0007F6000F1E040C00F0ED0301C18BF012037
:1038B000384320F00040C0F17F6000F1E040C00FCD
:1038C00004BF0120FCF72DFD20462946BDE8F0810C
:1038D000D0E9013201699A60D0E901235A604A684F
:1038E000824201D182684A60002202610868401E5B
:1038F0000860086870470000034B036003F1540040
:1039000008608020106070478800002000F10801E6
:103910004FF0FF32C0E90112C16001610021016076
:10392000704700210161704730B50B685A1C02D006
:1039300000F1080202E0026904E0224654682568AA
:103940009D42FAD953684B6099608A605160086162
:103950000168491C016030BD42684A6093688B6011
:1039600093685960916008610168491C0160704763
:10397000502080F31188BFF34F8FBFF36F8F0A4938
:103980004868401C486001280CD10848006810F0C5
:10399000FF0F07D0502080F31188BFF34F8FBFF384
:1039A0006F8FFEE7704700007C00002004ED00E010
:1039B0000849486828B1401E486001D180F3118849
:1039C0007047502080F31188BFF34F8FBFF36F8F84
:1039D000FEE700007C00002070B500282AD0164DBC
:1039E000A0F1080460686969084207D1502080F39B
:1039F0001188BFF34F8FBFF36F8FFEE722683AB194
:103A0000502080F31188BFF34F8FBFF36F8FFEE715
:103A10008843606000F080F8606869680844686006
:103A20002046FFF715FE2869401C2861BDE870405C
:103A300000F0DEB970BD00005C0000204FF0E02017
:103A400000210161816105494FF47A720968B1FB77
:103A5000F2F1491E41610721016170471000002009
:103A600010B5020014D00F48006B38B1502080F31D
:103A70001188BFF34F8FBFF36F8FFEE700F04CF854
:103A800000211046FFF788FC00F0B2F9002807D1AA
:103A900005494FF080500860BFF34F8FBFF36F8F21
:103AA00010BD00002000002004ED00E010B586B03D
:103AB0000024039405AA04A903A80494FFF71CFF9B
:103AC000DDE903010094CDE9011000230EA11048A7
:103AD000059A00F0EEF80F490028C86211D0502076
:103AE00080F31188BFF34F8FBFF36F8F4FF0FF301C
:103AF000886201204861CC6006B0BDE8104000F04B
:103B000041B806B010BD000049444C45000000001B
:103B100059350008200000200248016B491C016350
:103B200070470000200000201448016B11B10121F2
:103B3000C16170470021C1610169B1FA81F1C1F130
:103B40001F0101EB81020E4951F822306BB101EBEC
:103B5000820101F108034A6852684A609A4201D121
:103B600052684A60D16801607047502080F3118824
:103B7000BFF34F8FBFF36F8FFEE7000020000020E0
:103B8000800500201CB5264908780190FF200870A8
:103B900008788DF800009DF800009DF8002000F0E6
:103BA000F000904207D0502080F31188BFF34F8F70
:103BB000BFF36F8FFEE79DF800001A4C00F0500035
:103BC00020700720A06005E09DF8002052008DF8CD
:103BD0000020401E9DF800201206F5D4A0600328A6
:103BE00007D0502080F31188BFF34F8FBFF36F8F42
:103BF000FEE74FF44070A060019808700A48016821
:103C000041F470010160016841F070410160FFF70B
:103C100015FF00206060FCF7C9FA00201CBD000001
:103C200000E400E07C00002020ED00E010B5502012
:103C300080F31188BFF34F8FBFF36F8F00F072F8DE
:103C400018B104494FF080500860002080F31188BB
:103C500010BD000004ED00E02DE9FF5F8346DDE9C3
:103C60000E87994616468A469000FFF73BFD0500F1
:103C70001CD05420FFF736FD040014D0002025632B
:103C800084F85100CDE90240CDE900874B46324629
:103C900051465846FFF790FC2046FFF7B5FB012040
:103CA00004B0BDE8F09F2846FFF796FE4FF0FF30C6
:103CB000F6E7F0B585B0DDE90B640A9DA6B1DCB18D
:103CC000542700972663022684F85160002604AF2B
:103CD000CDE90246CDE90057FFF76EFC2046FFF71D
:103CE00093FB049805B0F0BD502080F31188BFF31A
:103CF0004F8FBFF36F8FFEE7502080F31188BFF323
:103D00004F8FBFF36F8FFEE70548416919B1006B14
:103D100018B1002070470120704702207047000052
:103D2000200000202DE9F0412F4C0026206B28B107
:103D3000A069401CA0613046BDE8F081E5686D1CBB
:103D4000E56013D1606B006838B1502080F31188B2
:103D5000BFF34F8FBFF36F8FFEE7606BA16B6163A3
:103D6000A063206A401C2062FFF798FCA06ADFF87D
:103D70007C80854209D3606B0068A0B1606BC0682D
:103D8000C7687868854211D2A0622068C06A00EBDB
:103D9000800158F82100012800D90126E069002897
:103DA000C9D00126C7E74FF0FF30EDE7381DFFF718
:103DB0008FFDB86A18B107F11800FFF789FDF96A9D
:103DC0000120226988401043206101EB810108EB4A
:103DD0008100391DFFF7C0FDF86A2168C96A884271
:103DE000C9D30126C7E7000020000020800500207D
:103DF0002DE9F0472C4D00242746286B38B1FFF7FA
:103E0000B7FD286B401E2863286B40B146E0502068
:103E100080F31188BFF34F8FBFF36F8FFEE7A96860
:103E2000224E0120D1B3A6F1B40980463068E8B132
:103E3000F068C46804F11800FFF74AFD201DFFF781
:103E400047FDE06A2A6908FA00F11143296100EB95
:103E5000800109EB8100211DFFF77EFDE06A2968E2
:103E6000C96A8842E2D3C5F81C80DFE70CB1FFF7CE
:103E700015FCAC6944B14646FFF754FF00B1EE6152
:103E8000641EF9D10020A861E86938B1084901270A
:103E900038070860BFF34F8FBFF36F8FFFF788FDC0
:103EA0003846BDE8F08700002000002034060020DE
:103EB00004ED00E021F00042A2F16052B2F5801F53
:103EC00001F0004328BFD2F17F6C0BD95FEA001CE0
:103ED00043EAC20242EB507018BF704728BF20F07F
:103EE00001007047B2F5801FBCBF184670474FEA0B
:103EF000410C1CF5001F02D2084601F0ACB870B5A9
:103F000000F09AFB00000089FFF7F6BF4FF0004079
:103F1000A0F580007047000010B591EA030F48BF7C
:103F200083F0004300F10C85841A71EB030C05D279
:103F3000121943EB0C03001B61EB0C01DFF824E1C9
:103F40004FEA1154A4EB135C1EEA430F18BF9EEA1C
:103F5000445F73D023EA0E03DCF1200E21EA045102
:103F600043F4801332D322FA0CFE10EB0E0023FA36
:103F70000CFE41EB0E01CCF1200E03FA0EFE10EB0D
:103F80000E0051F10001B1F5801FCCF1200E32D2AC
:103F900001EB045112FA0EF2BDE8104058BF704711
:103FA000401C38BF5FEA420218BF7047002814BFA8
:103FB00020F0010041F100014FEA410313F5001F19
:103FC00038BF7047A1F1C04100F084BB012A43EB28
:103FD0000302ACF1200CDCF11F0E32BF4FF0000EDB
:103FE00023FA0CF310EB030041EB0451B4EB115F27
:103FF000D0D0A1EB045101F5801149085FEA3000EF
:1040000001EB04510ED350F1000038BF12FA0EFE3E
:1040100008D1BDE81040C9E7401C38BF5FEA420242
:10402000CAD1C3E7BDE810404FEA410313F5001FB2
:1040300038BF7047A1F1C04100F04CBB9EEA445F1D
:1040400008D011EA5E0FBDE8104004BF01F0004146
:1040500000207047BDE8104070B500F0EDFA00BFD9
:1040600064FBBE3E0000E0FF02494FF0000001F09B
:10407000A8B800BF0000F87F491058BFC1F1404107
:104080005B1058BFC3F140438B42EFF30080704791
:104090002DE9C04130B4DFF8A0C23CEA111418BFCA
:1040A0003CEA131400F0EC8081EA03051CEA1114C9
:1040B00044EAD57418BF1CEA131500F0C780A4EBBE
:1040C00005044FF0004545EAC12145EAC32341EA12
:1040D000505143EA525304F17F74994204F500347D
:1040E0004FEAC0204FEAC22208BF904200F09C80F5
:1040F0004FEA13650FF24016765D4FEA134506FB53
:1041000005F7C7F1807706FB07F74FEAD737A7FB1C
:1041100003687642C8F58038A7FB06CE38BFA8F101
:10412000010807FB08E64FF0000EA6FB028CE6FB39
:1041300003CEDCF1000CCEF1004E38BFAEF1010E23
:10414000A6FB0C584FF000074FF00005E6FB0E876A
:10415000A1FB08C6A0FB07CE16EB0E0645F1000535
:10416000E1FB076515F1E04E7EBFA4F580345FEA00
:1041700046066D4116F1800745F100054FEA172705
:104180004FEA066647EA0567A6F1DE46B6F1805FAC
:104190004FEA15251FD9384624F0010C05EBC471F0
:1041A000BCF1FE6F01EB0C1102D8F0BCBDE8008140
:1041B00024425CBF01F5801E9EEAC47F02D4F0BC9D
:1041C000BDE80081244238D4F0BCA1F1C041BDE873
:1041D000004100F07FBA4FEAD22242EA43524FEA4E
:1041E000D323A7FB02864FEAD02040EA415007FBC9
:1041F00003661EEA0E0F4FEAD12105FB026658BF87
:10420000A6EB0056B6EB00564FEA520E4EEAC37EBE
:1042100018EB0E0E56EB530EBDD518EB02085E419F
:104220007F1C55F10005B6E74FF480154FF00007ED
:104230004FF000064FF00008ADE7F0BC4FF0000073
:1042400001F1C04101F00041BDE8008111EA0C1FFD
:104250000CEA131500D00CE013EA0C1F00F02580C7
:104260004FF00000F0BC81EA030101F00041BDE81D
:104270000081F0BCBDE8004181EA030100F02ABAE8
:10428000F0BCBDE8004170B500F0D6F9097EFC3EF7
:1042900000F007B881EA03014FF0000001F000418F
:1042A000704781EA030100F015BAF0BCBDE8004197
:1042B0004FF0000021497047FFFDFBF9F7F5F4F2DC
:1042C000F0EEEDEBE9E8E6E4E3E1E0DEDDDBDAD8B1
:1042D000D7D5D4D3D1D0CFCDCCCBCAC8C7C6C5C40F
:1042E000C2C1C0BFBEBDBCBBBAB9B8B7B6B5B4B326
:1042F000B2B1B0AFAEADACABAAA9A8A8A7A6A5A411
:10430000A3A3A2A1A09F9F9E9D9C9C9B9A999998D4
:104310009797969595949393929191908F8F8E8E77
:104320008D8C8C8B8B8A8989888887878685858404
:1043300084838382828181800000FF070000F87FF0
:1043400051EA030C17D41CF5801F58BFBCF5801F21
:1043500000F10680994218BF704708BF904270472D
:1043600007D711F5801F58BF13F5801F19D4994244
:104370007047894270471CF5801F08D5BCF5801F27
:10438000F7D58B4218BF704708BF824270474FF481
:10439000001C1CEB410F38BF1CEB430F01D28B42BA
:1043A000704770B500F048F9922449004FF0005171
:1043B0004FF08053FFF760BE4FEA41034FEA53537B
:1043C000A3F58063D3F11E03C8BFD3F1210C0CDD2C
:1043D0004FF0004242EAC12242EA505232FA03FC54
:1043E0008CEAE17CACEBE1707047102BC4BF00207D
:1043F000704703F5787CBCF1FF3F04D06FF00042BA
:1044000082EA2100704770B500F016F949922480C5
:1044100000207047F2E710F0004248BF4042B0FA77
:1044200080F310FA03F10AD0C3F11D0303F5806392
:104430004FEA415002EB035202EBD12170474FF09B
:1044400000007047B0FA80F310FA03F10AD0C3F10C
:104450001D0303F580634FEA41504FEA035202EB1C
:10446000D12170474FF000007047000051EA030C63
:1044700017D41CF5801F58BFBCF5801F00F10680C3
:10448000994218BF704708BF9042704707D711F58F
:10449000801F58BF13F5801F19D499427047894275
:1044A00070471CF5801F08D5BCF5801FF7D58B42DF
:1044B00018BF704708BF824270474FF4001C1CEBC6
:1044C000410F38BF1CEB430F01D28B42704770B5D0
:1044D00000F0B2F8922449004FF000514FF08053A1
:1044E000FFF7CABDDFF848C170B51CEA111E1EBF38
:1044F0001CEA13159EEA0C0F95EA0C0F00F06F8072
:1045000081EA030423EA4C134EEAD47E21EA4C11DB
:1045100041F4801143F48013AE44A1FB024CA0FB94
:104520000365AEF17F7E361955EB0C05A1FB034CFC
:104530004CF10003A0FB021C16EB0C06654153F185
:104540000003094218BF46F0010613F4007F0BD1A7
:104550004FEA03314FEA0530340341EA155140EA8E
:1045600016506FF003020AE04FEAC3214FEAC5205C
:10457000F40241EA555140EA56506FF0020202EB54
:104580002E4201EB025585EACE710AD05FEA440C57
:1045900018BF24F0004450F1000041F1000120EA6E
:1045A000D47040F2FE7C624500D270BDA84214BFB8
:1045B0004FF080444FF04044002E08BF0024BEF16D
:1045C000806FA8BFA1F1C041BDE8704080F2828039
:1045D0004FF0000001F1C04101F0004170479EEA38
:1045E0000C0F0CEA131518BF95EA0C0F06D04FF00C
:1045F000000081EA030E0EF0004170BD00F01CF8CF
:104600008900013E00F007B800F009B84FEA430CFA
:104610005FEA5C5C08D081EA030100F05BB84FEA16
:10462000410C5FEA5C5CF6D14FF000000149704735
:104630000000FF070000F87F0EF1020E2EF0030EBF
:104640005EF8046B364205D4012A43EB030515F5E9
:10465000001F12D8012841EB010C1CF5001F0CD8DB
:104660000ED14FEAD17C15F5001F0CEB4C0C0CF170
:10467000020C08BF4CEBD37C04E04FF0080C01E0C7
:104680004FEAD37C0CEB4C0526FA05F606F007063C
:10469000B6F1040C06D20EEB860CBDE870404CF06F
:1046A000010C6047DFE80CF0090B02024FF00041FB
:1046B0004FF00000A1F5002170BD194610460128F9
:1046C00051EB010418BFD4F5001484BF002001F0A1
:1046D000004170BD0808A0F500114FEA3101704794
:1046E00053EA010C17D41CF5801F58BFBCF5801F7E
:1046F00000F106808B4218BF704708BF82427047A6
:1047000007D713F5801F58BF11F5801F19D48B42AE
:1047100070479B4270471CF5801F08D5BCF5801F71
:10472000F7D5994218BF704708BF904270474FF4C1
:10473000001C1CEB430F38BF1CEB410F01D2994208
:1047400070470FB40CBC03BCFFF7C1BE91EA030F66
:1047500010B581F000413FF5E7AB83F0004300F076
:10476000EFB800002DE9F04101F5801CBCF5001FF9
:10477000C0F2C3804FEA115C21EA0C510CF1FD0C30
:1047800041F480115FEA5C0C0CF5C07C01D3400061
:1047900049413DA4890241EA905187028E0E0A0CDC
:1047A000A45D04FB04F602FB06F6C6F14046A4FB3A
:1047B0000662F60D46EA422606FB06F4A4FB012338
:1047C0005242C3F1404338BF5B1EA6FB02420024A5
:1047D000E6FB0324D20B42EA4446A6FB0623A1FBD8
:1047E00002E2A3FB07E4A4184FF0000252F100021A
:1047F000E3FB01426442C2F1404E38BFAEF1010E0C
:10480000A6FB04234FF00002E6FB0E32A2FB034698
:104810004FF00004B61954F10004E2FB0264A1FB5E
:1048200006E6A4FB07E816EB08064FF0000858F16F
:104830000008E4FB01687642C8F1405838BFA8F18F
:104840000108A2FB06E4A3FB08E52D194FF00004C4
:1048500054F10004E2FB0854A1FB05E6A7FB04E8C1
:1048600018EB06084FF0000656F10006E1FB04863F
:1048700018F1200556F10006A809A8F11B08B10996
:1048800008F03F08B8F10A0F40EA86601CD901EB36
:104890000C51BDE8F08100BFFCF5EEE8E2DDD8D3B5
:1048A000CFCBC7C3C0BDB9B6B4B1AEACA9A7A5A3A1
:1048B000A19F9D9B9A9896959392908F8D8C8B89B2
:1048C0008887868584838281A0FB006800FB01F2D3
:1048D00008EB4208B8EB872807D5341858EB0104D9
:1048E000D5D5401C51F10001D1E7341A78EB010411
:1048F000CDD4401E71F10001C9E75FEA4C0C5FEABC
:104900009C5C0DD105D34FF0000001F00041BDE8E3
:10491000F081BDE8F04170B5FFF78EFE6DDBFFBEA4
:10492000BDE8F0414FF00000004970470000F87FFB
:1049300010B591EA030F48BF83F000433FF5F4AA96
:10494000841A71EB030C07D212198CF0004C43EB64
:104950000C03001B61EB0C01DFF8A4E14FEA1154DA
:10496000A4EB135C1EEA430F18BF9EEA445F00F0FD
:10497000B08023EA6E03524221EA0451C3EB6E0376
:1049800038BF5B1EDCF1200E25D322FA0CFE10EBA3
:104990000E0043FA0CFE41EB0E01CCF1200E03FA9F
:1049A0000EFE10EB0E0051F10001CCF1200E29D4C7
:1049B00012FA0EF201EB0451BDE8104058BF7047E7
:1049C000401C1CBFB2F1004F704700280CBF491CAF
:1049D00020F00100704712EB020E43EB030218BFF8
:1049E0004FF0010E4EEA4202ACF1200CDCF11E0E3B
:1049F00054D943FA0CFE10EB0E0051F1FF31CCF10B
:104A00001E0ED5D50EF1010E12FA0EFE404141EBFD
:104A1000010101EB445C5FEA5C5C10D910EBDE70D5
:104A200001EB045138BFBEF1004FBDE8104018BF84
:104A3000704700280CBF491C20F00100704730D29D
:104A40004FEAD42C11F5001124F400641BD0B1FA04
:104A500081F20B3AA41AA41ED2F12003914030FA3D
:104A600003F31943904001EBCC71002C01EB04518E
:104A7000BDE81040A8BF704701F1C0414FF00000F1
:104A800001F000417047B0FA80F310FA03F100D151
:104A900010BDE41A173C4805C90AE4E701EB0451CC
:104AA00010BD491001EB0451BDE810404FEA300041
:104AB00002E04FF0000170474A0008BF0042F8D002
:104AC000B2F5001F28BF704701F000414FF0000011
:104AD00070479EEA445F07D011EA5E0FBDE81040C0
:104AE00004BF002100207047BDE8104070B5FFF7FB
:104AF000A3FD00BF40DFF63E83F000411046704743
:104B00000000E0FF43004FEAD30C4FEA3C0C434067
:104B10001FBF40070CF1605113F0FE4F70471CF0AF
:104B2000006F03D100200CF0004170470CF00043EF
:104B300043EA507010B540EACC0000F046FA00BFDE
:104B4000000000924FEA0001FFF7C4BD4FF00041A2
:104B50004FF00000A1F500217047000090EA010F1E
:104B600048BF81F0004100F1BE82421A3CBF801A6A
:104B700089184FEAD0524FF07F4C1CEA410FA2EB4C
:104B8000D15318BF9CEA026F00F03B804FF0004CFD
:104B90004CEA00204CEA012121FA03FC10EB0C0C3A
:104BA0001ED202F1FF325FEA1C2040EBC25038BF38
:104BB00070471CF07F0F4FEA400C18BFBCF17F4FCD
:104BC00038BF7047C3F12003994008BF20F00100AF
:104BD000BCF17F4F38BF7047A0F1C04000F03BBA36
:104BE0004FEA3C00000A40EBC25028BF1CF0FF0F08
:104BF0004FEA400CE6D018BFBCF17F4F38BF70477A
:104C0000EAE79CEA026F05D010EA5C0F08BF00F0EB
:104C10000040704710B500F0D8F900BF64FBBE3EFD
:104C2000014800F0CEBA00BF0000C07F401058BF5E
:104C3000C0F14040491058BFC1F140418142EFF3FB
:104C4000008070474FF47F0C1CEAD0121EBF1CEA94
:104C5000D11392EA0C0F93EA0C0F00F0858090EAD2
:104C6000010F48BF42F4807240F4000C41F4000090
:104C70002CF07F4120F07F4000B58142A2EB03027F
:104C80000FF2081CACEB504EC0F100009EF800E0A3
:104C90004FEA4E0E00FB0EFC38BF49004FEA2C1CB9
:104CA00002F5FA020CFB0EF34FEACE1E4FEA112C6E
:104CB0004FEAC1210EEB635E42EB22420EFB0CFC7D
:104CC0004FEA1C5300FB03114FEA112C4FEA01314C
:104CD0000EFB0CFC4FEADC4C00FB0C11C14228BF60
:104CE00009184CEB03335DF804EB10EB410143EB87
:104CF000C250B2F57C0F38BF704729D512F0F00FC3
:104D00001CBF00F1C04000F000407047008182836A
:104D10008485868788898B8C8D8E8F9192939596CA
:104D200097999A9C9D9FA0A2A3A5A7A8AAACAEB054
:104D3000B2B3B5B7B9BCBEC0C2C5C7C9CCCED1D459
:104D4000D7D9DCDFE2E6E9ECF0F3F7FAFE00000089
:104D50004FEA400C0CF1807CBCF17E4F28BF7047BD
:104D6000B0F1C04000F077B990EA010F0CEAD1131E
:104D700048BF42F48072624538BF634507D213F4DE
:104D80007F0F16D080EA010000F00040704710B598
:104D900000F01BF9097EFC3E00F005B880EA010036
:104DA00000F00040704780EA010000F0004000F091
:104DB00052B912F47F0F04BF0248704780EA010025
:104DC00000F049B90000C07FC10DD1F19E0206DBA1
:104DD0004FEA002343F0004323FA02F070470042F9
:104DE00007D54FEA4001B1F1FE4F02D24FF000006B
:104DF000704710B500F0E9F8499224800020704710
:104E00006FEA20007047000010F0004148BF4042A8
:104E1000B0FA80F310FA03F2C3F19D030BD051EA0C
:104E2000C35101EB1220530638BF704700F1010057
:104E300008BF20F001007047B0FA80F310FA03F2C7
:104E4000C3F19D030AD0D90501EB1220530638BFE8
:104E5000704700F1010008BF20F00100704700001A
:104E600050EA010C00F113801CF5000F58BFBCF58F
:104E7000000F01D48842704707D710F5000F58BFC4
:104E800011F5000F15D488427047894270471CF510
:104E9000000F04D5BCF5000FF7D5814270474FF0E5
:104EA000807C1CEB400F38BF1CEB410F01D28142CC
:104EB000704710B500F089F8922449004FF0005077
:104EC0004FF08051FFF7B2BE4FF47F0C1CEAD012B6
:104ED0001EBF1CEAD11392EA0C0F93EA0C0F00F0EC
:104EE000478090EA010F48BF42F480724FF0004CB7
:104EF0004CEA00204CEA012102EB0302A0FB011363
:104F0000A2F50002002918BF43F001035B0028BF8F
:104F10004FEA330342EB22425FEA132C4CEBC250C0
:104F20002EBFBCEB436FB2F57C0F70474FEA036CAA
:104F3000BCF1004F08BF20F00100B2F57C0F38BF74
:104F400070470BD582F0FF0212F5803FC8BF704753
:104F500000F1C040D8BF00F00040704700F5000CE1
:104F60005FEA4C0C48BF7047B0F1C04000F073B826
:104F700090EA010F0CEAD11348BF42F480726245F7
:104F800038BF634504D280EA010000F0004070475A
:104F900010B500F01AF800BF8900013E00F007B814
:104FA00000F009B85FEA410C5FEA1C6C08D080EAA7
:104FB000010000F050B85FEA400C5FEA1C6CF6D1CB
:104FC0004FF00040A0F5800070470EF1020E2EF069
:104FD000030E5EF8044B244204D44FEA4102B2F1BE
:104FE0007F4F11D84FEA4003B3F17F4F0CD80ED159
:104FF0004FEAD07CB2F17F4F0CEB4C0C0CF1020C61
:1050000008BF4CEBD17C04E04FF0080C01E04FEA04
:10501000D17C0CEB4C0324FA03F404F00704B4F144
:10502000040C06D20EEB840CBDE810404CF0010CD1
:105030006047DFE80CF0070802024FF00040A0F5DF
:10504000800010BD0846420018BFD2F1807288BFB0
:1050500000F0004010BDFF2141EAD050C00570476C
:1050600051EA000C00F113801CF5000F58BFBCF58D
:10507000000F01D48142704707D711F5000F58BFC8
:1050800010F5000F15D481427047894270471CF516
:10509000000F04D5BCF5000FF7D5884270474FF0DC
:1050A000807C1CEB410F38BF1CEB400F01D28842C3
:1050B000704780EA010081EA000180EA0100FFF701
:1050C000F8BE80F0004090EA010F7FF54EAD81F010
:1050D000004100F008B8000090EA010F48BF81F0DD
:1050E00000413FF542AD421A04D882F00042A0EBE5
:1050F000020011444FEAD0524FF07F4C1CEA410F9E
:10510000A2EBD15318BF9CEA026F4AD04FF0004C7B
:105110004CEA00204CEA012121FA03FCB0EB0C0C14
:105120000FD412F0FE0F36D05FEA4C001DD50012EE
:1051300040EBC25038BF70471CF03F0F18BF70479C
:105140000BE0A2F101025FEA1C2040EBC25038BF25
:1051500070471CF07F0F18BF7047C3F120039940C0
:1051600014BF401E20F00100704780084FEA122350
:1051700008BF7047B0FA80FCA2EB0C02CCF1280CFF
:1051800060FA0CF093EA122F04BF00EBC250704794
:105190004FEAC3707047130A5FEADC1008BF70471C
:1051A000F6E79CEA026F04D010EA5C0F08BF00200B
:1051B000704710B5FFF709FF40DFF63E81F0004071
:1051C00070470CF00F03092B08BF082000F07F8008
:1051D0000A2B0BD0082B18BF704708BF1CF0400FDC
:1051E0000AD04FF000004FF0000170471CF0400F54
:1051F00018BF4FF0004070471CF0100F08D020F08F
:10520000704300F07F4242EAD3014FEA4370704797
:1052100000F0604021F07F4242EA000201F07F404E
:1052200040EA727070474FF0FF0C4CF4E06C1CEADF
:1052300011531CBF9CEA030C9445C2BFDA4201EB38
:1052400002517047002B0DD0BCF1000F0FD0002A87
:1052500001F00041A4BF41F0E04141F07F614FF017
:105260000000704701F000414FF00000704750EA25
:1052700001334FF09B0C18BF4CF0806C7EF4F4AE01
:1052800070474FF0FF0212EAD0521CBF92F0FF03AA
:105290008B42C2BFD14200EBC1507047002A0AD0F6
:1052A000002B0BD0002900F00040A4BF40F0FE40CE
:1052B00040F40000704700F00040704743024FF098
:1052C0000B0C18BF4CF0806C7FF4AAAC70471CF438
:1052D000801F11D01CF4E02F03D06FEACC314900BD
:1052E00070474FF04050EFF3008222F0704242EAE4
:1052F000000282F3008870474FF000007047000002
:10530000345600086116000800000000000000008C
:105310008000000000000000000000001C56000893
:10532000D51400080000000000000000400000004C
:10533000000000000000000010560008C90300082B
:10534000000000000000000040000000000000001D
:105350000000000028560008AD030008000000000F
:1053600000000000800000000000000000000000BD
:105370000000000000000000010203040607080905
:105380000000484400000000000000000000484405
:1053900000000000000000000000204100000000AC
:1053A000000000000000C0400000000000000000FD
:1053B000010202030405060708090A0B0C0D0E0F73
:1053C0001010000000000000000000000000F03F8E
:1053D000000000000000F83F000000000000000096
:1053E0000000004003B8E23F0000000000000000A1
:1053F00006D0CF43EBFD4C3E033333333333E33F2F
:10540000FFAB6FDBB66DDB3F4D268F515555D53F5A
:1054100001411DA96074D13F65DBC9934A86CD3F28
:10542000EF4E454A287ECA3F3E5555555555C53F16
:1054300093BDBE166CC166BF2CDE25AF6A56113F08
:10544000F16BD2C541BDBBBED0A4BE726937663E0A
:105450004FBB610567ACDD3F182D4454FB21E93F8C
:105460009BF681D20B73EF3F182D4454FB21F93F7B
:10547000E2652F227F2B7A3C075C143326A6813C01
:10548000BDCBF07A8807703C075C143326A6913CAC
:10549000C4EB98999999C9BF711623FEC671BCBF18
:1054A0006D9A74AFF2B0B3BF9AFDDE522DDEADBF80
:1054B0002F6C6A2C44B4A2BF0D5555555555D53F98
:1054C000FF8300922449C23F6E204CC5CD45B73FB3
:1054D000513DD0A0660DB13FEB0D76244B7BA93F2B
:1054E00011DA22E33AAD903F4C5555555555A53F3D
:1054F0007751C1166CC156BF9015CB19A001FA3E69
:10550000AD529C804F7E92BEC4B1B4BD9EEE213E92
:10551000D43888BEE9FAA8BD0000000000000000F1
:1055200000004054FB21F93F3163621A61B4D03D61
:105530000000601A61B4D03D7370032E8A19A33B3A
:105540000000002E8A19A33BC14920259A837B398C
:1055500000000000000000006E83F9A22915444EEF
:10556000D15727FCC0DD34F5999562DB4190433C6F
:10557000AB6351FE61C5BBDE3A6E24B7E0D24D424B
:10558000EA2E49061C92D1091CEB1DFE3EA729B14B
:10559000F53582E88444BB2E26709CE9417E5FB4D9
:1055A00039D69139F43953838B5F849C3B28F9BDFC
:1055B000FF97F81F0F9805DE8B112FEF1F6D0A5A0A
:1055C000CF7E366DB709CB27663F464F2DEA5F9EEB
:1055D000C7BA27757BF1E5EBF739073DEA92528AA6
:1055E000B15FFB6B085D8D1FA6F810111111813F93
:1055F000D561C119A0012ABF7DFEB157E31DC73E89
:10560000EB9C2B8AE6E55ABE7CD5CF5A3AD9E53DCC
:10561000656E636F6465725461736B006D6F746F58
:10562000725461736B000000636861737369735433
:1056300061736B0064656661756C745461736B00B3
:1056400060560008000000208800000028010008C3
:10565000E8560008880000204818000044010008AF
:10566000000000000000000000000000000000003A
:1056700000127A000100000010000000000000008D
:10568000000000000000000000000000000000001A
:10569000000000000000000000000000000000000A
:1056A00000000000000000000000000000000000FA
:1056B00000000000000000000000000000000000EA
:1056C00000000000000000000000000000000000DA
:1056D00000000000000000000000000000000000CA
:0856E000AAAAAAAA000000001A
:04000005080000ED02
:00000001FF
